{
  "_format": "hh-sol-artifact-1",
  "contractName": "NFTMarket",
  "sourceName": "contracts/NFTMarket.sol",
  "abi": [
    {
      "anonymous": false,
      "inputs": [
        {
          "indexed": true,
          "internalType": "uint256",
          "name": "itemId",
          "type": "uint256"
        },
        {
          "indexed": true,
          "internalType": "address",
          "name": "nftContract",
          "type": "address"
        },
        {
          "indexed": true,
          "internalType": "uint256",
          "name": "tokenId",
          "type": "uint256"
        },
        {
          "indexed": false,
          "internalType": "address",
          "name": "seller",
          "type": "address"
        },
        {
          "indexed": false,
          "internalType": "address",
          "name": "owner",
          "type": "address"
        },
        {
          "indexed": false,
          "internalType": "uint256",
          "name": "price",
          "type": "uint256"
        }
      ],
      "name": "MarketItemCreated",
      "type": "event"
    },
    {
      "inputs": [
        {
          "internalType": "address",
          "name": "nftContract",
          "type": "address"
        },
        {
          "internalType": "uint256",
          "name": "tokenId",
          "type": "uint256"
        },
        {
          "internalType": "uint256",
          "name": "price",
          "type": "uint256"
        }
      ],
      "name": "createMarketItem",
      "outputs": [],
      "stateMutability": "payable",
      "type": "function"
    },
    {
      "inputs": [
        {
          "internalType": "address",
          "name": "nftContract",
          "type": "address"
        },
        {
          "internalType": "uint256",
          "name": "itemId",
          "type": "uint256"
        }
      ],
      "name": "createMarketSale",
      "outputs": [],
      "stateMutability": "payable",
      "type": "function"
    },
    {
      "inputs": [
        {
          "internalType": "uint256",
          "name": "itemId",
          "type": "uint256"
        }
      ],
      "name": "fetchMarketItem",
      "outputs": [
        {
          "components": [
            {
              "internalType": "uint256",
              "name": "itemId",
              "type": "uint256"
            },
            {
              "internalType": "address",
              "name": "nftContract",
              "type": "address"
            },
            {
              "internalType": "uint256",
              "name": "tokenId",
              "type": "uint256"
            },
            {
              "internalType": "address payable",
              "name": "seller",
              "type": "address"
            },
            {
              "internalType": "address payable",
              "name": "owner",
              "type": "address"
            },
            {
              "internalType": "uint256",
              "name": "price",
              "type": "uint256"
            }
          ],
          "internalType": "struct NFTMarket.MarketItem",
          "name": "",
          "type": "tuple"
        }
      ],
      "stateMutability": "view",
      "type": "function"
    },
    {
      "inputs": [],
      "name": "fetchMarketItems",
      "outputs": [
        {
          "components": [
            {
              "internalType": "uint256",
              "name": "itemId",
              "type": "uint256"
            },
            {
              "internalType": "address",
              "name": "nftContract",
              "type": "address"
            },
            {
              "internalType": "uint256",
              "name": "tokenId",
              "type": "uint256"
            },
            {
              "internalType": "address payable",
              "name": "seller",
              "type": "address"
            },
            {
              "internalType": "address payable",
              "name": "owner",
              "type": "address"
            },
            {
              "internalType": "uint256",
              "name": "price",
              "type": "uint256"
            }
          ],
          "internalType": "struct NFTMarket.MarketItem[]",
          "name": "",
          "type": "tuple[]"
        }
      ],
      "stateMutability": "view",
      "type": "function"
    },
    {
      "inputs": [],
      "name": "fetchMyNFTs",
      "outputs": [
        {
          "components": [
            {
              "internalType": "uint256",
              "name": "itemId",
              "type": "uint256"
            },
            {
              "internalType": "address",
              "name": "nftContract",
              "type": "address"
            },
            {
              "internalType": "uint256",
              "name": "tokenId",
              "type": "uint256"
            },
            {
              "internalType": "address payable",
              "name": "seller",
              "type": "address"
            },
            {
              "internalType": "address payable",
              "name": "owner",
              "type": "address"
            },
            {
              "internalType": "uint256",
              "name": "price",
              "type": "uint256"
            }
          ],
          "internalType": "struct NFTMarket.MarketItem[]",
          "name": "",
          "type": "tuple[]"
        }
      ],
      "stateMutability": "view",
      "type": "function"
    },
    {
      "inputs": [
        {
          "internalType": "uint256",
          "name": "marketItemId",
          "type": "uint256"
        }
      ],
      "name": "getMarketItem",
      "outputs": [
        {
          "components": [
            {
              "internalType": "uint256",
              "name": "itemId",
              "type": "uint256"
            },
            {
              "internalType": "address",
              "name": "nftContract",
              "type": "address"
            },
            {
              "internalType": "uint256",
              "name": "tokenId",
              "type": "uint256"
            },
            {
              "internalType": "address payable",
              "name": "seller",
              "type": "address"
            },
            {
              "internalType": "address payable",
              "name": "owner",
              "type": "address"
            },
            {
              "internalType": "uint256",
              "name": "price",
              "type": "uint256"
            }
          ],
          "internalType": "struct NFTMarket.MarketItem",
          "name": "",
          "type": "tuple"
        }
      ],
      "stateMutability": "view",
      "type": "function"
    }
  ],
  "bytecode": "0x608060405234801561001057600080fd5b506001600081905550611672806100286000396000f3fe6080604052600436106100555760003560e01c80630f08efe01461005a578063202e3740146100855780632a45b250146100b057806358eb2df5146100ed578063c23b139e14610109578063c7be7a4914610125575b600080fd5b34801561006657600080fd5b5061006f610162565b60405161007c9190611336565b60405180910390f35b34801561009157600080fd5b5061009a610473565b6040516100a79190611336565b60405180910390f35b3480156100bc57600080fd5b506100d760048036038101906100d291906110b6565b610808565b6040516100e491906113b8565b60405180910390f35b61010760048036038101906101029190611067565b61095b565b005b610123600480360381019061011e919061102b565b610c4f565b005b34801561013157600080fd5b5061014c600480360381019061014791906110b6565b610e18565b60405161015991906113b8565b60405180910390f35b606060006101706001610f65565b9050600061017e6002610f65565b6101886001610f65565b6101929190611473565b90506000808267ffffffffffffffff8111156101d7577f4e487b7100000000000000000000000000000000000000000000000000000000600052604160045260246000fd5b60405190808252806020026020018201604052801561021057816020015b6101fd610f89565b8152602001906001900390816101f55790505b50905060005b8481101561046857600073ffffffffffffffffffffffffffffffffffffffff1660046000600184610247919061141d565b815260200190815260200160002060040160009054906101000a900473ffffffffffffffffffffffffffffffffffffffff1673ffffffffffffffffffffffffffffffffffffffff161415610455576000600460006001846102a8919061141d565b81526020019081526020016000206000015490506000600460008381526020019081526020016000209050806040518060c0016040529081600082015481526020016001820160009054906101000a900473ffffffffffffffffffffffffffffffffffffffff1673ffffffffffffffffffffffffffffffffffffffff1673ffffffffffffffffffffffffffffffffffffffff168152602001600282015481526020016003820160009054906101000a900473ffffffffffffffffffffffffffffffffffffffff1673ffffffffffffffffffffffffffffffffffffffff1673ffffffffffffffffffffffffffffffffffffffff1681526020016004820160009054906101000a900473ffffffffffffffffffffffffffffffffffffffff1673ffffffffffffffffffffffffffffffffffffffff1673ffffffffffffffffffffffffffffffffffffffff168152602001600582015481525050848681518110610438577f4e487b7100000000000000000000000000000000000000000000000000000000600052603260045260246000fd5b6020026020010181905250600185610450919061141d565b945050505b8080610460906114f5565b915050610216565b508094505050505090565b606060006104816001610f65565b905060008060005b8381101561052a573373ffffffffffffffffffffffffffffffffffffffff16600460006001846104b9919061141d565b815260200190815260200160002060040160009054906101000a900473ffffffffffffffffffffffffffffffffffffffff1673ffffffffffffffffffffffffffffffffffffffff16141561051757600183610514919061141d565b92505b8080610522906114f5565b915050610489565b5060008267ffffffffffffffff81111561056d577f4e487b7100000000000000000000000000000000000000000000000000000000600052604160045260246000fd5b6040519080825280602002602001820160405280156105a657816020015b610593610f89565b81526020019060019003908161058b5790505b50905060005b838110156107fd573373ffffffffffffffffffffffffffffffffffffffff16600460006001846105dc919061141d565b815260200190815260200160002060040160009054906101000a900473ffffffffffffffffffffffffffffffffffffffff1673ffffffffffffffffffffffffffffffffffffffff1614156107ea5760006004600060018461063d919061141d565b81526020019081526020016000206000015490506000600460008381526020019081526020016000209050806040518060c0016040529081600082015481526020016001820160009054906101000a900473ffffffffffffffffffffffffffffffffffffffff1673ffffffffffffffffffffffffffffffffffffffff1673ffffffffffffffffffffffffffffffffffffffff168152602001600282015481526020016003820160009054906101000a900473ffffffffffffffffffffffffffffffffffffffff1673ffffffffffffffffffffffffffffffffffffffff1673ffffffffffffffffffffffffffffffffffffffff1681526020016004820160009054906101000a900473ffffffffffffffffffffffffffffffffffffffff1673ffffffffffffffffffffffffffffffffffffffff1673ffffffffffffffffffffffffffffffffffffffff1681526020016005820154815250508486815181106107cd577f4e487b7100000000000000000000000000000000000000000000000000000000600052603260045260246000fd5b60200260200101819052506001856107e5919061141d565b945050505b80806107f5906114f5565b9150506105ac565b508094505050505090565b610810610f89565b6000600460008481526020019081526020016000206040518060c0016040529081600082015481526020016001820160009054906101000a900473ffffffffffffffffffffffffffffffffffffffff1673ffffffffffffffffffffffffffffffffffffffff1673ffffffffffffffffffffffffffffffffffffffff168152602001600282015481526020016003820160009054906101000a900473ffffffffffffffffffffffffffffffffffffffff1673ffffffffffffffffffffffffffffffffffffffff1673ffffffffffffffffffffffffffffffffffffffff1681526020016004820160009054906101000a900473ffffffffffffffffffffffffffffffffffffffff1673ffffffffffffffffffffffffffffffffffffffff1673ffffffffffffffffffffffffffffffffffffffff168152602001600582015481525050905080915050919050565b600260005414156109a1576040517f08c379a000000000000000000000000000000000000000000000000000000000815260040161099890611378565b60405180910390fd5b6002600081905550600081116109ec576040517f08c379a00000000000000000000000000000000000000000000000000000000081526004016109e390611398565b60405180910390fd5b6109f66001610f73565b6000610a026001610f65565b90506040518060c001604052808281526020018573ffffffffffffffffffffffffffffffffffffffff1681526020018481526020013373ffffffffffffffffffffffffffffffffffffffff168152602001600073ffffffffffffffffffffffffffffffffffffffff16815260200183815250600460008381526020019081526020016000206000820151816000015560208201518160010160006101000a81548173ffffffffffffffffffffffffffffffffffffffff021916908373ffffffffffffffffffffffffffffffffffffffff1602179055506040820151816002015560608201518160030160006101000a81548173ffffffffffffffffffffffffffffffffffffffff021916908373ffffffffffffffffffffffffffffffffffffffff16021790555060808201518160040160006101000a81548173ffffffffffffffffffffffffffffffffffffffff021916908373ffffffffffffffffffffffffffffffffffffffff16021790555060a082015181600501559050508373ffffffffffffffffffffffffffffffffffffffff166323b872dd3330866040518463ffffffff1660e01b8152600401610bba939291906112ff565b600060405180830381600087803b158015610bd457600080fd5b505af1158015610be8573d6000803e3d6000fd5b50505050828473ffffffffffffffffffffffffffffffffffffffff16827f2ad024d53a0dc50c130967f8d4941927ee087ea31394cebb2b9599d3706c9c0033600087604051610c39939291906112ff565b60405180910390a4506001600081905550505050565b600060046000838152602001908152602001600020600501549050600060046000848152602001908152602001600020600201549050813414610cc7576040517f08c379a0000000000000000000000000000000000000000000000000000000008152600401610cbe90611358565b60405180910390fd5b6004600084815260200190815260200160002060030160009054906101000a900473ffffffffffffffffffffffffffffffffffffffff1673ffffffffffffffffffffffffffffffffffffffff166108fc349081150290604051600060405180830381858888f19350505050158015610d43573d6000803e3d6000fd5b508373ffffffffffffffffffffffffffffffffffffffff166323b872dd3033846040518463ffffffff1660e01b8152600401610d81939291906112ff565b600060405180830381600087803b158015610d9b57600080fd5b505af1158015610daf573d6000803e3d6000fd5b50505050336004600085815260200190815260200160002060040160006101000a81548173ffffffffffffffffffffffffffffffffffffffff021916908373ffffffffffffffffffffffffffffffffffffffff160217905550610e126002610f73565b50505050565b610e20610f89565b600460008381526020019081526020016000206040518060c0016040529081600082015481526020016001820160009054906101000a900473ffffffffffffffffffffffffffffffffffffffff1673ffffffffffffffffffffffffffffffffffffffff1673ffffffffffffffffffffffffffffffffffffffff168152602001600282015481526020016003820160009054906101000a900473ffffffffffffffffffffffffffffffffffffffff1673ffffffffffffffffffffffffffffffffffffffff1673ffffffffffffffffffffffffffffffffffffffff1681526020016004820160009054906101000a900473ffffffffffffffffffffffffffffffffffffffff1673ffffffffffffffffffffffffffffffffffffffff1673ffffffffffffffffffffffffffffffffffffffff1681526020016005820154815250509050919050565b600081600001549050919050565b6001816000016000828254019250508190555050565b6040518060c0016040528060008152602001600073ffffffffffffffffffffffffffffffffffffffff16815260200160008152602001600073ffffffffffffffffffffffffffffffffffffffff168152602001600073ffffffffffffffffffffffffffffffffffffffff168152602001600081525090565b6000813590506110108161160e565b92915050565b60008135905061102581611625565b92915050565b6000806040838503121561103e57600080fd5b600061104c85828601611001565b925050602061105d85828601611016565b9150509250929050565b60008060006060848603121561107c57600080fd5b600061108a86828701611001565b935050602061109b86828701611016565b92505060406110ac86828701611016565b9150509250925092565b6000602082840312156110c857600080fd5b60006110d684828501611016565b91505092915050565b60006110eb83836111eb565b60c08301905092915050565b611100816114b9565b82525050565b61110f816114a7565b82525050565b61111e816114a7565b82525050565b600061112f826113e3565b61113981856113fb565b9350611144836113d3565b8060005b8381101561117557815161115c88826110df565b9750611167836113ee565b925050600181019050611148565b5085935050505092915050565b600061118f60408361140c565b915061119a8261156d565b604082019050919050565b60006111b2601f8361140c565b91506111bd826115bc565b602082019050919050565b60006111d5601c8361140c565b91506111e0826115e5565b602082019050919050565b60c08201600082015161120160008501826112e1565b5060208201516112146020850182611106565b50604082015161122760408501826112e1565b50606082015161123a60608501826110f7565b50608082015161124d60808501826110f7565b5060a082015161126060a08501826112e1565b50505050565b60c08201600082015161127c60008501826112e1565b50602082015161128f6020850182611106565b5060408201516112a260408501826112e1565b5060608201516112b560608501826110f7565b5060808201516112c860808501826110f7565b5060a08201516112db60a08501826112e1565b50505050565b6112ea816114eb565b82525050565b6112f9816114eb565b82525050565b60006060820190506113146000830186611115565b6113216020830185611115565b61132e60408301846112f0565b949350505050565b600060208201905081810360008301526113508184611124565b905092915050565b6000602082019050818103600083015261137181611182565b9050919050565b60006020820190508181036000830152611391816111a5565b9050919050565b600060208201905081810360008301526113b1816111c8565b9050919050565b600060c0820190506113cd6000830184611266565b92915050565b6000819050602082019050919050565b600081519050919050565b6000602082019050919050565b600082825260208201905092915050565b600082825260208201905092915050565b6000611428826114eb565b9150611433836114eb565b9250827fffffffffffffffffffffffffffffffffffffffffffffffffffffffffffffffff038211156114685761146761153e565b5b828201905092915050565b600061147e826114eb565b9150611489836114eb565b92508282101561149c5761149b61153e565b5b828203905092915050565b60006114b2826114cb565b9050919050565b60006114c4826114cb565b9050919050565b600073ffffffffffffffffffffffffffffffffffffffff82169050919050565b6000819050919050565b6000611500826114eb565b91507fffffffffffffffffffffffffffffffffffffffffffffffffffffffffffffffff8214156115335761153261153e565b5b600182019050919050565b7f4e487b7100000000000000000000000000000000000000000000000000000000600052601160045260246000fd5b7f506c65617365207375626d6974207468652061736b696e67207072696365206960008201527f6e206f7264657220746f20636f6d706c65746520746865207075726368617365602082015250565b7f5265656e7472616e637947756172643a207265656e7472616e742063616c6c00600082015250565b7f5072696365206d757374206265206174206c6561737420312077656900000000600082015250565b611617816114a7565b811461162257600080fd5b50565b61162e816114eb565b811461163957600080fd5b5056fea264697066735822122047347838ae781ba1a8ef954eaca0ef45590bfdcb32202b90a066863c9085043b64736f6c63430008040033",
  "linkReferences": {},
  "deployedLinkReferences": {}
}